{
  "contractName": "Degree",
  "abi": [
    {
      "inputs": [],
      "stateMutability": "nonpayable",
      "type": "constructor"
    },
    {
      "anonymous": false,
      "inputs": [
        {
          "indexed": true,
          "internalType": "address",
          "name": "_owner",
          "type": "address"
        },
        {
          "indexed": true,
          "internalType": "address",
          "name": "_approved",
          "type": "address"
        },
        {
          "indexed": true,
          "internalType": "uint256",
          "name": "_tokenId",
          "type": "uint256"
        }
      ],
      "name": "Approval",
      "type": "event"
    },
    {
      "anonymous": false,
      "inputs": [
        {
          "indexed": true,
          "internalType": "address",
          "name": "_owner",
          "type": "address"
        },
        {
          "indexed": true,
          "internalType": "address",
          "name": "_operator",
          "type": "address"
        },
        {
          "indexed": false,
          "internalType": "bool",
          "name": "_approved",
          "type": "bool"
        }
      ],
      "name": "ApprovalForAll",
      "type": "event"
    },
    {
      "anonymous": false,
      "inputs": [
        {
          "indexed": false,
          "internalType": "address",
          "name": "student",
          "type": "address"
        },
        {
          "indexed": false,
          "internalType": "string",
          "name": "courseName",
          "type": "string"
        }
      ],
      "name": "CourseHidden",
      "type": "event"
    },
    {
      "anonymous": false,
      "inputs": [
        {
          "indexed": true,
          "internalType": "address",
          "name": "previousOwner",
          "type": "address"
        },
        {
          "indexed": true,
          "internalType": "address",
          "name": "newOwner",
          "type": "address"
        }
      ],
      "name": "OwnershipTransferred",
      "type": "event"
    },
    {
      "anonymous": false,
      "inputs": [
        {
          "indexed": true,
          "internalType": "address",
          "name": "_from",
          "type": "address"
        },
        {
          "indexed": true,
          "internalType": "address",
          "name": "_to",
          "type": "address"
        },
        {
          "indexed": true,
          "internalType": "uint256",
          "name": "_tokenId",
          "type": "uint256"
        }
      ],
      "name": "Transfer",
      "type": "event"
    },
    {
      "inputs": [],
      "name": "CANNOT_TRANSFER_TO_ZERO_ADDRESS",
      "outputs": [
        {
          "internalType": "string",
          "name": "",
          "type": "string"
        }
      ],
      "stateMutability": "view",
      "type": "function",
      "constant": true
    },
    {
      "inputs": [],
      "name": "NOT_CURRENT_OWNER",
      "outputs": [
        {
          "internalType": "string",
          "name": "",
          "type": "string"
        }
      ],
      "stateMutability": "view",
      "type": "function",
      "constant": true
    },
    {
      "inputs": [
        {
          "internalType": "address",
          "name": "_approved",
          "type": "address"
        },
        {
          "internalType": "uint256",
          "name": "_tokenId",
          "type": "uint256"
        }
      ],
      "name": "approve",
      "outputs": [],
      "stateMutability": "nonpayable",
      "type": "function"
    },
    {
      "inputs": [
        {
          "internalType": "address",
          "name": "_owner",
          "type": "address"
        }
      ],
      "name": "balanceOf",
      "outputs": [
        {
          "internalType": "uint256",
          "name": "",
          "type": "uint256"
        }
      ],
      "stateMutability": "view",
      "type": "function",
      "constant": true
    },
    {
      "inputs": [
        {
          "internalType": "uint256",
          "name": "_tokenId",
          "type": "uint256"
        }
      ],
      "name": "getApproved",
      "outputs": [
        {
          "internalType": "address",
          "name": "",
          "type": "address"
        }
      ],
      "stateMutability": "view",
      "type": "function",
      "constant": true
    },
    {
      "inputs": [
        {
          "internalType": "address",
          "name": "_owner",
          "type": "address"
        },
        {
          "internalType": "address",
          "name": "_operator",
          "type": "address"
        }
      ],
      "name": "isApprovedForAll",
      "outputs": [
        {
          "internalType": "bool",
          "name": "",
          "type": "bool"
        }
      ],
      "stateMutability": "view",
      "type": "function",
      "constant": true
    },
    {
      "inputs": [],
      "name": "name",
      "outputs": [
        {
          "internalType": "string",
          "name": "_name",
          "type": "string"
        }
      ],
      "stateMutability": "view",
      "type": "function",
      "constant": true
    },
    {
      "inputs": [],
      "name": "owner",
      "outputs": [
        {
          "internalType": "address",
          "name": "",
          "type": "address"
        }
      ],
      "stateMutability": "view",
      "type": "function",
      "constant": true
    },
    {
      "inputs": [
        {
          "internalType": "uint256",
          "name": "_tokenId",
          "type": "uint256"
        }
      ],
      "name": "ownerOf",
      "outputs": [
        {
          "internalType": "address",
          "name": "_owner",
          "type": "address"
        }
      ],
      "stateMutability": "view",
      "type": "function",
      "constant": true
    },
    {
      "inputs": [
        {
          "internalType": "address",
          "name": "_from",
          "type": "address"
        },
        {
          "internalType": "address",
          "name": "_to",
          "type": "address"
        },
        {
          "internalType": "uint256",
          "name": "_tokenId",
          "type": "uint256"
        }
      ],
      "name": "safeTransferFrom",
      "outputs": [],
      "stateMutability": "nonpayable",
      "type": "function"
    },
    {
      "inputs": [
        {
          "internalType": "address",
          "name": "_from",
          "type": "address"
        },
        {
          "internalType": "address",
          "name": "_to",
          "type": "address"
        },
        {
          "internalType": "uint256",
          "name": "_tokenId",
          "type": "uint256"
        },
        {
          "internalType": "bytes",
          "name": "_data",
          "type": "bytes"
        }
      ],
      "name": "safeTransferFrom",
      "outputs": [],
      "stateMutability": "nonpayable",
      "type": "function"
    },
    {
      "inputs": [
        {
          "internalType": "address",
          "name": "_operator",
          "type": "address"
        },
        {
          "internalType": "bool",
          "name": "_approved",
          "type": "bool"
        }
      ],
      "name": "setApprovalForAll",
      "outputs": [],
      "stateMutability": "nonpayable",
      "type": "function"
    },
    {
      "inputs": [
        {
          "internalType": "address",
          "name": "",
          "type": "address"
        }
      ],
      "name": "students",
      "outputs": [
        {
          "internalType": "address",
          "name": "studentPerson",
          "type": "address"
        },
        {
          "internalType": "string",
          "name": "studentName",
          "type": "string"
        },
        {
          "internalType": "bool",
          "name": "graduationStatus",
          "type": "bool"
        }
      ],
      "stateMutability": "view",
      "type": "function",
      "constant": true
    },
    {
      "inputs": [
        {
          "internalType": "bytes4",
          "name": "_interfaceID",
          "type": "bytes4"
        }
      ],
      "name": "supportsInterface",
      "outputs": [
        {
          "internalType": "bool",
          "name": "",
          "type": "bool"
        }
      ],
      "stateMutability": "view",
      "type": "function",
      "constant": true
    },
    {
      "inputs": [],
      "name": "symbol",
      "outputs": [
        {
          "internalType": "string",
          "name": "_symbol",
          "type": "string"
        }
      ],
      "stateMutability": "view",
      "type": "function",
      "constant": true
    },
    {
      "inputs": [
        {
          "internalType": "uint256",
          "name": "_tokenId",
          "type": "uint256"
        }
      ],
      "name": "tokenURI",
      "outputs": [
        {
          "internalType": "string",
          "name": "",
          "type": "string"
        }
      ],
      "stateMutability": "view",
      "type": "function",
      "constant": true
    },
    {
      "inputs": [
        {
          "internalType": "address",
          "name": "_from",
          "type": "address"
        },
        {
          "internalType": "address",
          "name": "_to",
          "type": "address"
        },
        {
          "internalType": "uint256",
          "name": "_tokenId",
          "type": "uint256"
        }
      ],
      "name": "transferFrom",
      "outputs": [],
      "stateMutability": "nonpayable",
      "type": "function"
    },
    {
      "inputs": [
        {
          "internalType": "address",
          "name": "_newOwner",
          "type": "address"
        }
      ],
      "name": "transferOwnership",
      "outputs": [],
      "stateMutability": "nonpayable",
      "type": "function"
    },
    {
      "inputs": [
        {
          "internalType": "address",
          "name": "toStudentAddress",
          "type": "address"
        },
        {
          "internalType": "string",
          "name": "studentName",
          "type": "string"
        }
      ],
      "name": "mintDegree",
      "outputs": [],
      "stateMutability": "nonpayable",
      "type": "function"
    },
    {
      "inputs": [
        {
          "internalType": "address",
          "name": "adminPerson",
          "type": "address"
        }
      ],
      "name": "setAdmin",
      "outputs": [],
      "stateMutability": "nonpayable",
      "type": "function"
    },
    {
      "inputs": [
        {
          "internalType": "address",
          "name": "studentPerson",
          "type": "address"
        },
        {
          "internalType": "string",
          "name": "studentName",
          "type": "string"
        }
      ],
      "name": "setStudent",
      "outputs": [],
      "stateMutability": "nonpayable",
      "type": "function"
    },
    {
      "inputs": [
        {
          "internalType": "address",
          "name": "studentPerson",
          "type": "address"
        }
      ],
      "name": "setGraduated",
      "outputs": [],
      "stateMutability": "nonpayable",
      "type": "function"
    },
    {
      "inputs": [
        {
          "internalType": "address",
          "name": "studentPerson",
          "type": "address"
        },
        {
          "internalType": "string",
          "name": "courseName",
          "type": "string"
        },
        {
          "internalType": "uint256",
          "name": "courseGPA",
          "type": "uint256"
        }
      ],
      "name": "setCourse",
      "outputs": [],
      "stateMutability": "nonpayable",
      "type": "function"
    },
    {
      "inputs": [
        {
          "internalType": "address",
          "name": "studentPerson",
          "type": "address"
        }
      ],
      "name": "showAllCourses",
      "outputs": [
        {
          "components": [
            {
              "internalType": "string",
              "name": "name",
              "type": "string"
            },
            {
              "internalType": "uint256",
              "name": "gpa",
              "type": "uint256"
            }
          ],
          "internalType": "struct Degree.Course[]",
          "name": "",
          "type": "tuple[]"
        }
      ],
      "stateMutability": "view",
      "type": "function",
      "constant": true
    },
    {
      "inputs": [
        {
          "internalType": "string",
          "name": "courseName",
          "type": "string"
        }
      ],
      "name": "hideCourse",
      "outputs": [],
      "stateMutability": "nonpayable",
      "type": "function"
    },
    {
      "inputs": [
        {
          "internalType": "string",
          "name": "courseName",
          "type": "string"
        }
      ],
      "name": "showCourse",
      "outputs": [],
      "stateMutability": "nonpayable",
      "type": "function"
    }
  ],
  "bytecode": "0x60806040523480156200001157600080fd5b5060016000806301ffc9a760e01b7bffffffffffffffffffffffffffffffffffffffffffffffffffffffff1916815260200190815260200160002060006101000a81548160ff02191690831515021790555060016000806380ac58cd60e01b7bffffffffffffffffffffffffffffffffffffffffffffffffffffffff1916815260200190815260200160002060006101000a81548160ff0219169083151502179055506001600080635b5e139f60e01b7bffffffffffffffffffffffffffffffffffffffffffffffffffffffff1916815260200190815260200160002060006101000a81548160ff02191690831515021790555033600860006101000a81548173ffffffffffffffffffffffffffffffffffffffff021916908373ffffffffffffffffffffffffffffffffffffffff1602179055506040518060400160405280600a81526020017f446567726565204e465400000000000000000000000000000000000000000000815250600590805190602001906200019392919062000281565b506040518060400160405280600381526020017f444547000000000000000000000000000000000000000000000000000000000081525060069080519060200190620001e192919062000281565b5033600960006101000a81548173ffffffffffffffffffffffffffffffffffffffff021916908373ffffffffffffffffffffffffffffffffffffffff1602179055506001600f60003373ffffffffffffffffffffffffffffffffffffffff1673ffffffffffffffffffffffffffffffffffffffff16815260200190815260200160002060006101000a81548160ff02191690831515021790555062000396565b8280546200028f9062000331565b90600052602060002090601f016020900481019282620002b35760008555620002ff565b82601f10620002ce57805160ff1916838001178555620002ff565b82800160010185558215620002ff579182015b82811115620002fe578251825591602001919060010190620002e1565b5b5090506200030e919062000312565b5090565b5b808211156200032d57600081600090555060010162000313565b5090565b600060028204905060018216806200034a57607f821691505b6020821081141562000361576200036062000367565b5b50919050565b7f4e487b7100000000000000000000000000000000000000000000000000000000600052602260045260246000fd5b6148df80620003a66000396000f3fe608060405234801561001057600080fd5b506004361061018e5760003560e01c80638da5cb5b116100de578063c87b56dd11610097578063f05ddc3411610071578063f05ddc34146104a5578063f2fde38b146104c1578063f3fe3bc3146104dd578063fe2ff375146104fb5761018e565b8063c87b56dd14610429578063e985e9c514610459578063f043d9c4146104895761018e565b80638da5cb5b1461036757806395d89b4114610385578063a22cb465146103a3578063a691bf68146103bf578063a6c807a9146103db578063b88d4fde1461040d5761018e565b806323b872dd1161014b5780636352211e116101255780636352211e146102cd578063704b6c02146102fd57806370a0823114610319578063860d248a146103495761018e565b806323b872dd1461026557806342842e0e146102815780634ddaaad61461029d5761018e565b806301ffc9a71461019357806306dbf0b4146101c357806306fdde03146101df578063081812fc146101fd578063095ea7b31461022d5780630d713ab614610249575b600080fd5b6101ad60048036038101906101a89190613ea5565b610517565b6040516101ba9190614428565b60405180910390f35b6101dd60048036038101906101d89190613ef7565b61057e565b005b6101e7610b7b565b6040516101f49190614443565b60405180910390f35b61021760048036038101906102129190613f38565b610c0d565b6040516102249190614331565b60405180910390f35b61024760048036038101906102429190613e69565b610d28565b005b610263600480360381019061025e9190613be6565b61110b565b005b61027f600480360381019061027a9190613c4b565b6111bf565b005b61029b60048036038101906102969190613c4b565b611611565b005b6102b760048036038101906102b29190613be6565b611631565b6040516102c49190614406565b60405180910390f35b6102e760048036038101906102e29190613f38565b61176b565b6040516102f49190614331565b60405180910390f35b61031760048036038101906103129190613be6565b611851565b005b610333600480360381019061032e9190613be6565b611906565b60405161034091906144a5565b60405180910390f35b6103516119c0565b60405161035e9190614443565b60405180910390f35b61036f6119f9565b60405161037c9190614331565b60405180910390f35b61038d611a1f565b60405161039a9190614443565b60405180910390f35b6103bd60048036038101906103b89190613d1a565b611ab1565b005b6103d960048036038101906103d49190613e02565b611bae565b005b6103f560048036038101906103f09190613be6565b611d2b565b604051610404939291906143c8565b60405180910390f35b61042760048036038101906104229190613c9a565b611e0a565b005b610443600480360381019061043e9190613f38565b611e61565b6040516104509190614443565b60405180910390f35b610473600480360381019061046e9190613c0f565b611f51565b6040516104809190614428565b60405180910390f35b6104a3600480360381019061049e9190613d56565b611fe5565b005b6104bf60048036038101906104ba9190613ef7565b61216b565b005b6104db60048036038101906104d69190613be6565b612528565b005b6104e561275a565b6040516104f29190614443565b60405180910390f35b61051560048036038101906105109190613dae565b612793565b005b6000806000837bffffffffffffffffffffffffffffffffffffffffffffffffffffffff19167bffffffffffffffffffffffffffffffffffffffffffffffffffffffff1916815260200190815260200160002060009054906101000a900460ff169050919050565b601060003373ffffffffffffffffffffffffffffffffffffffff1673ffffffffffffffffffffffffffffffffffffffff16815260200190815260200160002060000160009054906101000a900473ffffffffffffffffffffffffffffffffffffffff1673ffffffffffffffffffffffffffffffffffffffff163373ffffffffffffffffffffffffffffffffffffffff161461061857600080fd5b60003390506000601360008373ffffffffffffffffffffffffffffffffffffffff1673ffffffffffffffffffffffffffffffffffffffff16815260200190815260200160002090506000601260008473ffffffffffffffffffffffffffffffffffffffff1673ffffffffffffffffffffffffffffffffffffffff16815260200190815260200160002090506000805b838054905082101561076c57856040516020016106c491906142ee565b60405160208183030381529060405280519060200120848381548110610713577f4e487b7100000000000000000000000000000000000000000000000000000000600052603260045260246000fd5b90600052602060002090600202016000016040516020016107349190614305565b604051602081830303815290604052805190602001201415610759576001905061076c565b818061076490614735565b9250506106a7565b806107ac576040517f08c379a00000000000000000000000000000000000000000000000000000000081526004016107a390614465565b60405180910390fd5b60008483815481106107e7577f4e487b7100000000000000000000000000000000000000000000000000000000600052603260045260246000fd5b906000526020600020906002020160405180604001604052908160008201805461081090614703565b80601f016020809104026020016040519081016040528092919081815260200182805461083c90614703565b80156108895780601f1061085e57610100808354040283529160200191610889565b820191906000526020600020905b81548152906001019060200180831161086c57829003601f168201915b50505050508152602001600182015481525050905060005b8480549050811015610b71576040516020016108bc9061431c565b6040516020818303038152906040528051906020012085828154811061090b577f4e487b7100000000000000000000000000000000000000000000000000000000600052603260045260246000fd5b906000526020600020906002020160000160405160200161092c9190614305565b604051602081830303815290604052805190602001201415610b5e5781858281548110610982577f4e487b7100000000000000000000000000000000000000000000000000000000600052603260045260246000fd5b906000526020600020906002020160008201518160000190805190602001906109ac929190613911565b50602082015181600101559050506001816109c791906145c3565b601160008973ffffffffffffffffffffffffffffffffffffffff1673ffffffffffffffffffffffffffffffffffffffff16815260200190815260200160002089604051610a1491906142ee565b9081526020016040518091039020819055508560018780549050610a389190614619565b81548110610a6f577f4e487b7100000000000000000000000000000000000000000000000000000000600052603260045260246000fd5b9060005260206000209060020201868581548110610ab6577f4e487b7100000000000000000000000000000000000000000000000000000000600052603260045260246000fd5b90600052602060002090600202016000820181600001908054610ad890614703565b610ae3929190613997565b506001820154816001015590505085805480610b28577f4e487b7100000000000000000000000000000000000000000000000000000000600052603160045260246000fd5b600190038181906000526020600020906002020160008082016000610b4d9190613a24565b600182016000905550509055610b71565b8080610b6990614735565b9150506108a1565b5050505050505050565b606060058054610b8a90614703565b80601f0160208091040260200160405190810160405280929190818152602001828054610bb690614703565b8015610c035780601f10610bd857610100808354040283529160200191610c03565b820191906000526020600020905b815481529060010190602001808311610be657829003601f168201915b5050505050905090565b600081600073ffffffffffffffffffffffffffffffffffffffff166001600083815260200190815260200160002060009054906101000a900473ffffffffffffffffffffffffffffffffffffffff1673ffffffffffffffffffffffffffffffffffffffff1614156040518060400160405280600681526020017f303033303032000000000000000000000000000000000000000000000000000081525090610ceb576040517f08c379a0000000000000000000000000000000000000000000000000000000008152600401610ce29190614443565b60405180910390fd5b506002600084815260200190815260200160002060009054906101000a900473ffffffffffffffffffffffffffffffffffffffff16915050919050565b8060006001600083815260200190815260200160002060009054906101000a900473ffffffffffffffffffffffffffffffffffffffff1690503373ffffffffffffffffffffffffffffffffffffffff168173ffffffffffffffffffffffffffffffffffffffff161480610e215750600460008273ffffffffffffffffffffffffffffffffffffffff1673ffffffffffffffffffffffffffffffffffffffff16815260200190815260200160002060003373ffffffffffffffffffffffffffffffffffffffff1673ffffffffffffffffffffffffffffffffffffffff16815260200190815260200160002060009054906101000a900460ff165b6040518060400160405280600681526020017f303033303033000000000000000000000000000000000000000000000000000081525090610e98576040517f08c379a0000000000000000000000000000000000000000000000000000000008152600401610e8f9190614443565b60405180910390fd5b5082600073ffffffffffffffffffffffffffffffffffffffff166001600083815260200190815260200160002060009054906101000a900473ffffffffffffffffffffffffffffffffffffffff1673ffffffffffffffffffffffffffffffffffffffff1614156040518060400160405280600681526020017f303033303032000000000000000000000000000000000000000000000000000081525090610f75576040517f08c379a0000000000000000000000000000000000000000000000000000000008152600401610f6c9190614443565b60405180910390fd5b5060006001600086815260200190815260200160002060009054906101000a900473ffffffffffffffffffffffffffffffffffffffff1690508073ffffffffffffffffffffffffffffffffffffffff168673ffffffffffffffffffffffffffffffffffffffff1614156040518060400160405280600681526020017f303033303038000000000000000000000000000000000000000000000000000081525090611055576040517f08c379a000000000000000000000000000000000000000000000000000000000815260040161104c9190614443565b60405180910390fd5b50856002600087815260200190815260200160002060006101000a81548173ffffffffffffffffffffffffffffffffffffffff021916908373ffffffffffffffffffffffffffffffffffffffff160217905550848673ffffffffffffffffffffffffffffffffffffffff168273ffffffffffffffffffffffffffffffffffffffff167f8c5be1e5ebec7d5bd14f71427d1e84f3dd0314c0f7b2291e5b200ac8c7c3b92560405160405180910390a4505050505050565b600f60003373ffffffffffffffffffffffffffffffffffffffff1673ffffffffffffffffffffffffffffffffffffffff16815260200190815260200160002060009054906101000a900460ff1661116157600080fd5b6001601060008373ffffffffffffffffffffffffffffffffffffffff1673ffffffffffffffffffffffffffffffffffffffff16815260200190815260200160002060020160006101000a81548160ff02191690831515021790555050565b8060006001600083815260200190815260200160002060009054906101000a900473ffffffffffffffffffffffffffffffffffffffff1690503373ffffffffffffffffffffffffffffffffffffffff168173ffffffffffffffffffffffffffffffffffffffff16148061129057503373ffffffffffffffffffffffffffffffffffffffff166002600084815260200190815260200160002060009054906101000a900473ffffffffffffffffffffffffffffffffffffffff1673ffffffffffffffffffffffffffffffffffffffff16145b806113215750600460008273ffffffffffffffffffffffffffffffffffffffff1673ffffffffffffffffffffffffffffffffffffffff16815260200190815260200160002060003373ffffffffffffffffffffffffffffffffffffffff1673ffffffffffffffffffffffffffffffffffffffff16815260200190815260200160002060009054906101000a900460ff165b6040518060400160405280600681526020017f303033303034000000000000000000000000000000000000000000000000000081525090611398576040517f08c379a000000000000000000000000000000000000000000000000000000000815260040161138f9190614443565b60405180910390fd5b5082600073ffffffffffffffffffffffffffffffffffffffff166001600083815260200190815260200160002060009054906101000a900473ffffffffffffffffffffffffffffffffffffffff1673ffffffffffffffffffffffffffffffffffffffff1614156040518060400160405280600681526020017f303033303032000000000000000000000000000000000000000000000000000081525090611475576040517f08c379a000000000000000000000000000000000000000000000000000000000815260040161146c9190614443565b60405180910390fd5b5060006001600086815260200190815260200160002060009054906101000a900473ffffffffffffffffffffffffffffffffffffffff1690508673ffffffffffffffffffffffffffffffffffffffff168173ffffffffffffffffffffffffffffffffffffffff16146040518060400160405280600681526020017f303033303037000000000000000000000000000000000000000000000000000081525090611554576040517f08c379a000000000000000000000000000000000000000000000000000000000815260040161154b9190614443565b60405180910390fd5b50600073ffffffffffffffffffffffffffffffffffffffff168673ffffffffffffffffffffffffffffffffffffffff1614156040518060400160405280600681526020017f3030333030310000000000000000000000000000000000000000000000000000815250906115fd576040517f08c379a00000000000000000000000000000000000000000000000000000000081526004016115f49190614443565b60405180910390fd5b506116088686612a0a565b50505050505050565b61162c83838360405180602001604052806000815250612abf565b505050565b6060601260008373ffffffffffffffffffffffffffffffffffffffff1673ffffffffffffffffffffffffffffffffffffffff168152602001908152602001600020805480602002602001604051908101604052809291908181526020016000905b8282101561176057838290600052602060002090600202016040518060400160405290816000820180546116c590614703565b80601f01602080910402602001604051908101604052809291908181526020018280546116f190614703565b801561173e5780601f106117135761010080835404028352916020019161173e565b820191906000526020600020905b81548152906001019060200180831161172157829003601f168201915b5050505050815260200160018201548152505081526020019060010190611692565b505050509050919050565b60006001600083815260200190815260200160002060009054906101000a900473ffffffffffffffffffffffffffffffffffffffff169050600073ffffffffffffffffffffffffffffffffffffffff168173ffffffffffffffffffffffffffffffffffffffff1614156040518060400160405280600681526020017f30303330303200000000000000000000000000000000000000000000000000008152509061184b576040517f08c379a00000000000000000000000000000000000000000000000000000000081526004016118429190614443565b60405180910390fd5b50919050565b600960009054906101000a900473ffffffffffffffffffffffffffffffffffffffff1673ffffffffffffffffffffffffffffffffffffffff163373ffffffffffffffffffffffffffffffffffffffff16146118ab57600080fd5b6001600f60008373ffffffffffffffffffffffffffffffffffffffff1673ffffffffffffffffffffffffffffffffffffffff16815260200190815260200160002060006101000a81548160ff02191690831515021790555050565b60008073ffffffffffffffffffffffffffffffffffffffff168273ffffffffffffffffffffffffffffffffffffffff1614156040518060400160405280600681526020017f3030333030310000000000000000000000000000000000000000000000000000815250906119af576040517f08c379a00000000000000000000000000000000000000000000000000000000081526004016119a69190614443565b60405180910390fd5b506119b98261308d565b9050919050565b6040518060400160405280600681526020017f303138303032000000000000000000000000000000000000000000000000000081525081565b600860009054906101000a900473ffffffffffffffffffffffffffffffffffffffff1681565b606060068054611a2e90614703565b80601f0160208091040260200160405190810160405280929190818152602001828054611a5a90614703565b8015611aa75780601f10611a7c57610100808354040283529160200191611aa7565b820191906000526020600020905b815481529060010190602001808311611a8a57829003601f168201915b5050505050905090565b80600460003373ffffffffffffffffffffffffffffffffffffffff1673ffffffffffffffffffffffffffffffffffffffff16815260200190815260200160002060008473ffffffffffffffffffffffffffffffffffffffff1673ffffffffffffffffffffffffffffffffffffffff16815260200190815260200160002060006101000a81548160ff0219169083151502179055508173ffffffffffffffffffffffffffffffffffffffff163373ffffffffffffffffffffffffffffffffffffffff167f17307eab39ab6107e8899845ad3d59bd9653f200f220920489ca2b5937696c3183604051611ba29190614428565b60405180910390a35050565b600f60003373ffffffffffffffffffffffffffffffffffffffff1673ffffffffffffffffffffffffffffffffffffffff16815260200190815260200160002060009054906101000a900460ff16611c0457600080fd5b6000601260008573ffffffffffffffffffffffffffffffffffffffff1673ffffffffffffffffffffffffffffffffffffffff16815260200190815260200160002090506000818054905090508160405180604001604052808681526020018581525090806001815401808255809150506001900390600052602060002090600202016000909190919091506000820151816000019080519060200190611cab929190613911565b50602082015181600101555050600181611cc591906145c3565b601160008773ffffffffffffffffffffffffffffffffffffffff1673ffffffffffffffffffffffffffffffffffffffff16815260200190815260200160002085604051611d1291906142ee565b9081526020016040518091039020819055505050505050565b60106020528060005260406000206000915090508060000160009054906101000a900473ffffffffffffffffffffffffffffffffffffffff1690806001018054611d7490614703565b80601f0160208091040260200160405190810160405280929190818152602001828054611da090614703565b8015611ded5780601f10611dc257610100808354040283529160200191611ded565b820191906000526020600020905b815481529060010190602001808311611dd057829003601f168201915b5050505050908060020160009054906101000a900460ff16905083565b611e5a85858585858080601f016020809104026020016040519081016040528093929190818152602001838380828437600081840152601f19601f82011690508083019250505050505050612abf565b5050505050565b606081600073ffffffffffffffffffffffffffffffffffffffff166001600083815260200190815260200160002060009054906101000a900473ffffffffffffffffffffffffffffffffffffffff1673ffffffffffffffffffffffffffffffffffffffff1614156040518060400160405280600681526020017f303033303032000000000000000000000000000000000000000000000000000081525090611f3f576040517f08c379a0000000000000000000000000000000000000000000000000000000008152600401611f369190614443565b60405180910390fd5b50611f49836130d6565b915050919050565b6000600460008473ffffffffffffffffffffffffffffffffffffffff1673ffffffffffffffffffffffffffffffffffffffff16815260200190815260200160002060008373ffffffffffffffffffffffffffffffffffffffff1673ffffffffffffffffffffffffffffffffffffffff16815260200190815260200160002060009054906101000a900460ff16905092915050565b600f60003373ffffffffffffffffffffffffffffffffffffffff1673ffffffffffffffffffffffffffffffffffffffff16815260200190815260200160002060009054906101000a900460ff1661203b57600080fd5b601060008473ffffffffffffffffffffffffffffffffffffffff1673ffffffffffffffffffffffffffffffffffffffff16815260200190815260200160002060010160405160200161208d9190614305565b6040516020818303038152906040528051906020012082826040516020016120b69291906142d5565b604051602081830303815290604052805190602001201480156121255750601060008473ffffffffffffffffffffffffffffffffffffffff1673ffffffffffffffffffffffffffffffffffffffff16815260200190815260200160002060020160009054906101000a900460ff165b156121665760008360405160200161213d91906142ba565b6040516020818303038152906040528051906020012060001c90506121648482858561317b565b505b505050565b601060003373ffffffffffffffffffffffffffffffffffffffff1673ffffffffffffffffffffffffffffffffffffffff16815260200190815260200160002060000160009054906101000a900473ffffffffffffffffffffffffffffffffffffffff1673ffffffffffffffffffffffffffffffffffffffff163373ffffffffffffffffffffffffffffffffffffffff161461220557600080fd5b60003390506000601160008373ffffffffffffffffffffffffffffffffffffffff1673ffffffffffffffffffffffffffffffffffffffff1681526020019081526020016000208360405161225991906142ee565b9081526020016040518091039020549050600081116122ad576040517f08c379a00000000000000000000000000000000000000000000000000000000081526004016122a490614485565b60405180910390fd5b6001816122ba9190614619565b90506000601160008473ffffffffffffffffffffffffffffffffffffffff1673ffffffffffffffffffffffffffffffffffffffff1681526020019081526020016000208460405161230b91906142ee565b908152602001604051809103902081905550601360008373ffffffffffffffffffffffffffffffffffffffff1673ffffffffffffffffffffffffffffffffffffffff168152602001908152602001600020601260008473ffffffffffffffffffffffffffffffffffffffff1673ffffffffffffffffffffffffffffffffffffffff16815260200190815260200160002082815481106123d3577f4e487b7100000000000000000000000000000000000000000000000000000000600052603260045260246000fd5b90600052602060002090600202019080600181540180825580915050600190039060005260206000209060020201600090919091909150600082018160000190805461241e90614703565b612429929190613997565b50600182015481600101555050600d601260008473ffffffffffffffffffffffffffffffffffffffff1673ffffffffffffffffffffffffffffffffffffffff16815260200190815260200160002082815481106124af577f4e487b7100000000000000000000000000000000000000000000000000000000600052603260045260246000fd5b906000526020600020906002020160008201816000019080546124d190614703565b6124dc929190613997565b50600182015481600101559050507f83e38bc341d6f507f7b532b250743ba97d5cac7ed4d415f8a3223ec2f5756724828460405161251b929190614398565b60405180910390a1505050565b600860009054906101000a900473ffffffffffffffffffffffffffffffffffffffff1673ffffffffffffffffffffffffffffffffffffffff163373ffffffffffffffffffffffffffffffffffffffff16146040518060400160405280600681526020017f3031383030310000000000000000000000000000000000000000000000000000815250906125f0576040517f08c379a00000000000000000000000000000000000000000000000000000000081526004016125e79190614443565b60405180910390fd5b50600073ffffffffffffffffffffffffffffffffffffffff168173ffffffffffffffffffffffffffffffffffffffff1614156040518060400160405280600681526020017f303138303032000000000000000000000000000000000000000000000000000081525090612699576040517f08c379a00000000000000000000000000000000000000000000000000000000081526004016126909190614443565b60405180910390fd5b508073ffffffffffffffffffffffffffffffffffffffff16600860009054906101000a900473ffffffffffffffffffffffffffffffffffffffff1673ffffffffffffffffffffffffffffffffffffffff167f8be0079c531659141344cd1fd0a4f28419497f9722a3daafe3b4186f6b6457e060405160405180910390a380600860006101000a81548173ffffffffffffffffffffffffffffffffffffffff021916908373ffffffffffffffffffffffffffffffffffffffff16021790555050565b6040518060400160405280600681526020017f303138303031000000000000000000000000000000000000000000000000000081525081565b600f60003373ffffffffffffffffffffffffffffffffffffffff1673ffffffffffffffffffffffffffffffffffffffff16815260200190815260200160002060009054906101000a900460ff166127e957600080fd5b6000600a6040518060600160405290816000820160009054906101000a900473ffffffffffffffffffffffffffffffffffffffff1673ffffffffffffffffffffffffffffffffffffffff1673ffffffffffffffffffffffffffffffffffffffff16815260200160018201805461285e90614703565b80601f016020809104026020016040519081016040528092919081815260200182805461288a90614703565b80156128d75780601f106128ac576101008083540402835291602001916128d7565b820191906000526020600020905b8154815290600101906020018083116128ba57829003601f168201915b505050505081526020016002820160009054906101000a900460ff161515151581525050905082816000019073ffffffffffffffffffffffffffffffffffffffff16908173ffffffffffffffffffffffffffffffffffffffff168152505081816020018190525080601060008573ffffffffffffffffffffffffffffffffffffffff1673ffffffffffffffffffffffffffffffffffffffff16815260200190815260200160002060008201518160000160006101000a81548173ffffffffffffffffffffffffffffffffffffffff021916908373ffffffffffffffffffffffffffffffffffffffff16021790555060208201518160010190805190602001906129e1929190613911565b5060408201518160020160006101000a81548160ff021916908315150217905550905050505050565b60006001600083815260200190815260200160002060009054906101000a900473ffffffffffffffffffffffffffffffffffffffff169050612a4b826132a2565b612a5581836132db565b612a5f8383613446565b818373ffffffffffffffffffffffffffffffffffffffff168273ffffffffffffffffffffffffffffffffffffffff167fddf252ad1be2c89b69c2b068fc378daa952ba7f163c4a11628f55a4df523b3ef60405160405180910390a4505050565b8160006001600083815260200190815260200160002060009054906101000a900473ffffffffffffffffffffffffffffffffffffffff1690503373ffffffffffffffffffffffffffffffffffffffff168173ffffffffffffffffffffffffffffffffffffffff161480612b9057503373ffffffffffffffffffffffffffffffffffffffff166002600084815260200190815260200160002060009054906101000a900473ffffffffffffffffffffffffffffffffffffffff1673ffffffffffffffffffffffffffffffffffffffff16145b80612c215750600460008273ffffffffffffffffffffffffffffffffffffffff1673ffffffffffffffffffffffffffffffffffffffff16815260200190815260200160002060003373ffffffffffffffffffffffffffffffffffffffff1673ffffffffffffffffffffffffffffffffffffffff16815260200190815260200160002060009054906101000a900460ff165b6040518060400160405280600681526020017f303033303034000000000000000000000000000000000000000000000000000081525090612c98576040517f08c379a0000000000000000000000000000000000000000000000000000000008152600401612c8f9190614443565b60405180910390fd5b5083600073ffffffffffffffffffffffffffffffffffffffff166001600083815260200190815260200160002060009054906101000a900473ffffffffffffffffffffffffffffffffffffffff1673ffffffffffffffffffffffffffffffffffffffff1614156040518060400160405280600681526020017f303033303032000000000000000000000000000000000000000000000000000081525090612d75576040517f08c379a0000000000000000000000000000000000000000000000000000000008152600401612d6c9190614443565b60405180910390fd5b5060006001600087815260200190815260200160002060009054906101000a900473ffffffffffffffffffffffffffffffffffffffff1690508773ffffffffffffffffffffffffffffffffffffffff168173ffffffffffffffffffffffffffffffffffffffff16146040518060400160405280600681526020017f303033303037000000000000000000000000000000000000000000000000000081525090612e54576040517f08c379a0000000000000000000000000000000000000000000000000000000008152600401612e4b9190614443565b60405180910390fd5b50600073ffffffffffffffffffffffffffffffffffffffff168773ffffffffffffffffffffffffffffffffffffffff1614156040518060400160405280600681526020017f303033303031000000000000000000000000000000000000000000000000000081525090612efd576040517f08c379a0000000000000000000000000000000000000000000000000000000008152600401612ef49190614443565b60405180910390fd5b50612f088787612a0a565b612f278773ffffffffffffffffffffffffffffffffffffffff166135ce565b156130835760008773ffffffffffffffffffffffffffffffffffffffff1663150b7a02338b8a8a6040518563ffffffff1660e01b8152600401612f6d949392919061434c565b602060405180830381600087803b158015612f8757600080fd5b505af1158015612f9b573d6000803e3d6000fd5b505050506040513d601f19601f82011682018060405250810190612fbf9190613ece565b905063150b7a0260e01b7bffffffffffffffffffffffffffffffffffffffffffffffffffffffff1916817bffffffffffffffffffffffffffffffffffffffffffffffffffffffff1916146040518060400160405280600681526020017f303033303035000000000000000000000000000000000000000000000000000081525090613080576040517f08c379a00000000000000000000000000000000000000000000000000000000081526004016130779190614443565b60405180910390fd5b50505b5050505050505050565b6000600360008373ffffffffffffffffffffffffffffffffffffffff1673ffffffffffffffffffffffffffffffffffffffff168152602001908152602001600020549050919050565b60606007600083815260200190815260200160002080546130f690614703565b80601f016020809104026020016040519081016040528092919081815260200182805461312290614703565b801561316f5780601f106131445761010080835404028352916020019161316f565b820191906000526020600020905b81548152906001019060200180831161315257829003601f168201915b50505050509050919050565b600860009054906101000a900473ffffffffffffffffffffffffffffffffffffffff1673ffffffffffffffffffffffffffffffffffffffff163373ffffffffffffffffffffffffffffffffffffffff16146040518060400160405280600681526020017f303138303031000000000000000000000000000000000000000000000000000081525090613243576040517f08c379a000000000000000000000000000000000000000000000000000000000815260040161323a9190614443565b60405180910390fd5b5061324e8484613619565b61329c8383838080601f016020809104026020016040519081016040528093929190818152602001838380828437600081840152601f19601f82011690508083019250505050505050613807565b50505050565b6002600082815260200190815260200160002060006101000a81549073ffffffffffffffffffffffffffffffffffffffff021916905550565b8173ffffffffffffffffffffffffffffffffffffffff166001600083815260200190815260200160002060009054906101000a900473ffffffffffffffffffffffffffffffffffffffff1673ffffffffffffffffffffffffffffffffffffffff16146040518060400160405280600681526020017f3030333030370000000000000000000000000000000000000000000000000000815250906133b4576040517f08c379a00000000000000000000000000000000000000000000000000000000081526004016133ab9190614443565b60405180910390fd5b506001600360008473ffffffffffffffffffffffffffffffffffffffff1673ffffffffffffffffffffffffffffffffffffffff16815260200190815260200160002060008282546134059190614619565b925050819055506001600082815260200190815260200160002060006101000a81549073ffffffffffffffffffffffffffffffffffffffff02191690555050565b600073ffffffffffffffffffffffffffffffffffffffff166001600083815260200190815260200160002060009054906101000a900473ffffffffffffffffffffffffffffffffffffffff1673ffffffffffffffffffffffffffffffffffffffff16146040518060400160405280600681526020017f303033303036000000000000000000000000000000000000000000000000000081525090613520576040517f08c379a00000000000000000000000000000000000000000000000000000000081526004016135179190614443565b60405180910390fd5b50816001600083815260200190815260200160002060006101000a81548173ffffffffffffffffffffffffffffffffffffffff021916908373ffffffffffffffffffffffffffffffffffffffff1602179055506001600360008473ffffffffffffffffffffffffffffffffffffffff1673ffffffffffffffffffffffffffffffffffffffff16815260200190815260200160002060008282546135c391906145c3565b925050819055505050565b60008060007fc5d2460186f7233c927e7db2dcc703c0e500b653ca82273b7bfad8045d85a47060001b9050833f91506000801b82141580156136105750808214155b92505050919050565b600073ffffffffffffffffffffffffffffffffffffffff168273ffffffffffffffffffffffffffffffffffffffff1614156040518060400160405280600681526020017f3030333030310000000000000000000000000000000000000000000000000000815250906136c1576040517f08c379a00000000000000000000000000000000000000000000000000000000081526004016136b89190614443565b60405180910390fd5b50600073ffffffffffffffffffffffffffffffffffffffff166001600083815260200190815260200160002060009054906101000a900473ffffffffffffffffffffffffffffffffffffffff1673ffffffffffffffffffffffffffffffffffffffff16146040518060400160405280600681526020017f30303330303600000000000000000000000000000000000000000000000000008152509061379c576040517f08c379a00000000000000000000000000000000000000000000000000000000081526004016137939190614443565b60405180910390fd5b506137a78282613446565b808273ffffffffffffffffffffffffffffffffffffffff16600073ffffffffffffffffffffffffffffffffffffffff167fddf252ad1be2c89b69c2b068fc378daa952ba7f163c4a11628f55a4df523b3ef60405160405180910390a45050565b81600073ffffffffffffffffffffffffffffffffffffffff166001600083815260200190815260200160002060009054906101000a900473ffffffffffffffffffffffffffffffffffffffff1673ffffffffffffffffffffffffffffffffffffffff1614156040518060400160405280600681526020017f3030333030320000000000000000000000000000000000000000000000000000815250906138e3576040517f08c379a00000000000000000000000000000000000000000000000000000000081526004016138da9190614443565b60405180910390fd5b508160076000858152602001908152602001600020908051906020019061390b929190613911565b50505050565b82805461391d90614703565b90600052602060002090601f01602090048101928261393f5760008555613986565b82601f1061395857805160ff1916838001178555613986565b82800160010185558215613986579182015b8281111561398557825182559160200191906001019061396a565b5b5090506139939190613a64565b5090565b8280546139a390614703565b90600052602060002090601f0160209004810192826139c55760008555613a13565b82601f106139d65780548555613a13565b82800160010185558215613a1357600052602060002091601f016020900482015b82811115613a125782548255916001019190600101906139f7565b5b509050613a209190613a64565b5090565b508054613a3090614703565b6000825580601f10613a425750613a61565b601f016020900490600052602060002090810190613a609190613a64565b5b50565b5b80821115613a7d576000816000905550600101613a65565b5090565b6000613a94613a8f846144f1565b6144c0565b905082815260208101848484011115613aac57600080fd5b613ab78482856146c1565b509392505050565b600081359050613ace8161484d565b92915050565b600081359050613ae381614864565b92915050565b600081359050613af88161487b565b92915050565b600081519050613b0d8161487b565b92915050565b60008083601f840112613b2557600080fd5b8235905067ffffffffffffffff811115613b3e57600080fd5b602083019150836001820283011115613b5657600080fd5b9250929050565b60008083601f840112613b6f57600080fd5b8235905067ffffffffffffffff811115613b8857600080fd5b602083019150836001820283011115613ba057600080fd5b9250929050565b600082601f830112613bb857600080fd5b8135613bc8848260208601613a81565b91505092915050565b600081359050613be081614892565b92915050565b600060208284031215613bf857600080fd5b6000613c0684828501613abf565b91505092915050565b60008060408385031215613c2257600080fd5b6000613c3085828601613abf565b9250506020613c4185828601613abf565b9150509250929050565b600080600060608486031215613c6057600080fd5b6000613c6e86828701613abf565b9350506020613c7f86828701613abf565b9250506040613c9086828701613bd1565b9150509250925092565b600080600080600060808688031215613cb257600080fd5b6000613cc088828901613abf565b9550506020613cd188828901613abf565b9450506040613ce288828901613bd1565b935050606086013567ffffffffffffffff811115613cff57600080fd5b613d0b88828901613b13565b92509250509295509295909350565b60008060408385031215613d2d57600080fd5b6000613d3b85828601613abf565b9250506020613d4c85828601613ad4565b9150509250929050565b600080600060408486031215613d6b57600080fd5b6000613d7986828701613abf565b935050602084013567ffffffffffffffff811115613d9657600080fd5b613da286828701613b5d565b92509250509250925092565b60008060408385031215613dc157600080fd5b6000613dcf85828601613abf565b925050602083013567ffffffffffffffff811115613dec57600080fd5b613df885828601613ba7565b9150509250929050565b600080600060608486031215613e1757600080fd5b6000613e2586828701613abf565b935050602084013567ffffffffffffffff811115613e4257600080fd5b613e4e86828701613ba7565b9250506040613e5f86828701613bd1565b9150509250925092565b60008060408385031215613e7c57600080fd5b6000613e8a85828601613abf565b9250506020613e9b85828601613bd1565b9150509250929050565b600060208284031215613eb757600080fd5b6000613ec584828501613ae9565b91505092915050565b600060208284031215613ee057600080fd5b6000613eee84828501613afe565b91505092915050565b600060208284031215613f0957600080fd5b600082013567ffffffffffffffff811115613f2357600080fd5b613f2f84828501613ba7565b91505092915050565b600060208284031215613f4a57600080fd5b6000613f5884828501613bd1565b91505092915050565b6000613f6d838361425f565b905092915050565b613f7e8161464d565b82525050565b613f95613f908261464d565b61477e565b82525050565b6000613fa682614546565b613fb08185614574565b935083602082028501613fc285614521565b8060005b85811015613ffe5784840389528151613fdf8582613f61565b9450613fea83614567565b925060208a01995050600181019050613fc6565b50829750879550505050505092915050565b6140198161465f565b82525050565b600061402a82614551565b6140348185614585565b93506140448185602086016146d0565b61404d8161482f565b840191505092915050565b600061406483856145b8565b93506140718385846146c1565b82840190509392505050565b60006140888261455c565b6140928185614596565b93506140a28185602086016146d0565b6140ab8161482f565b840191505092915050565b60006140c18261455c565b6140cb81856145a7565b93506140db8185602086016146d0565b6140e48161482f565b840191505092915050565b60006140fa8261455c565b61410481856145b8565b93506141148185602086016146d0565b80840191505092915050565b6000815461412d81614703565b61413781866145b8565b94506001821660008114614152576001811461416357614196565b60ff19831686528186019350614196565b61416c85614531565b60005b8381101561418e5781548189015260018201915060208101905061416f565b838801955050505b50505092915050565b60006141ac6022836145a7565b91507f436f75727365206e6f7420666f756e6420696e2068696464656e20636f75727360008301527f65730000000000000000000000000000000000000000000000000000000000006020830152604082019050919050565b6000614212601b836145a7565b91507f4572726f722c20636f7572736520646f65736e277420657869737400000000006000830152602082019050919050565b60006142526000836145b8565b9150600082019050919050565b6000604083016000830151848203600086015261427c828261407d565b9150506020830151614291602086018261429c565b508091505092915050565b6142a5816146b7565b82525050565b6142b4816146b7565b82525050565b60006142c68284613f84565b60148201915081905092915050565b60006142e2828486614058565b91508190509392505050565b60006142fa82846140ef565b915081905092915050565b60006143118284614120565b915081905092915050565b600061432782614245565b9150819050919050565b60006020820190506143466000830184613f75565b92915050565b60006080820190506143616000830187613f75565b61436e6020830186613f75565b61437b60408301856142ab565b818103606083015261438d818461401f565b905095945050505050565b60006040820190506143ad6000830185613f75565b81810360208301526143bf81846140b6565b90509392505050565b60006060820190506143dd6000830186613f75565b81810360208301526143ef81856140b6565b90506143fe6040830184614010565b949350505050565b600060208201905081810360008301526144208184613f9b565b905092915050565b600060208201905061443d6000830184614010565b92915050565b6000602082019050818103600083015261445d81846140b6565b905092915050565b6000602082019050818103600083015261447e8161419f565b9050919050565b6000602082019050818103600083015261449e81614205565b9050919050565b60006020820190506144ba60008301846142ab565b92915050565b6000604051905081810181811067ffffffffffffffff821117156144e7576144e6614800565b5b8060405250919050565b600067ffffffffffffffff82111561450c5761450b614800565b5b601f19601f8301169050602081019050919050565b6000819050602082019050919050565b60008190508160005260206000209050919050565b600081519050919050565b600081519050919050565b600081519050919050565b6000602082019050919050565b600082825260208201905092915050565b600082825260208201905092915050565b600082825260208201905092915050565b600082825260208201905092915050565b600081905092915050565b60006145ce826146b7565b91506145d9836146b7565b9250827fffffffffffffffffffffffffffffffffffffffffffffffffffffffffffffffff0382111561460e5761460d6147a2565b5b828201905092915050565b6000614624826146b7565b915061462f836146b7565b925082821015614642576146416147a2565b5b828203905092915050565b600061465882614697565b9050919050565b60008115159050919050565b60007fffffffff0000000000000000000000000000000000000000000000000000000082169050919050565b600073ffffffffffffffffffffffffffffffffffffffff82169050919050565b6000819050919050565b82818337600083830152505050565b60005b838110156146ee5780820151818401526020810190506146d3565b838111156146fd576000848401525b50505050565b6000600282049050600182168061471b57607f821691505b6020821081141561472f5761472e6147d1565b5b50919050565b6000614740826146b7565b91507fffffffffffffffffffffffffffffffffffffffffffffffffffffffffffffffff821415614773576147726147a2565b5b600182019050919050565b600061478982614790565b9050919050565b600061479b82614840565b9050919050565b7f4e487b7100000000000000000000000000000000000000000000000000000000600052601160045260246000fd5b7f4e487b7100000000000000000000000000000000000000000000000000000000600052602260045260246000fd5b7f4e487b7100000000000000000000000000000000000000000000000000000000600052604160045260246000fd5b6000601f19601f8301169050919050565b60008160601b9050919050565b6148568161464d565b811461486157600080fd5b50565b61486d8161465f565b811461487857600080fd5b50565b6148848161466b565b811461488f57600080fd5b50565b61489b816146b7565b81146148a657600080fd5b5056fea264697066735822122099a7efdb4fd8fddf6147a5eb340560ea5460a1a040efe51cd1e4345636b2667864736f6c63430008000033",
  "immutableReferences": {},
  "source": "// SPDX-License-Identifier: GPL-3.0\r\npragma solidity ^0.8.0;\r\n\r\nimport \"./Token.sol\";\r\n\r\ncontract Degree is degNFT {\r\n    address registrar;\r\n    struct Course{\r\n        string name;\r\n        uint gpa;\r\n    }\r\n    struct Student{\r\n        address studentPerson;\r\n        string studentName;\r\n        bool graduationStatus;\r\n    }\r\n    Student private defaultStudent;\r\n    Course private defaultCourse;\r\n    mapping(address => bool) private isAdmin;\r\n    mapping(address => Student) public students;\r\n    mapping(address => mapping(string => uint)) private courseIndex;\r\n    mapping(address => Course[]) private studentCourses;\r\n    mapping(address => Course[]) private hiddenCourses;\r\n\r\n    modifier onlyRegistrar{\r\n        require(msg.sender == registrar);\r\n        _;\r\n    }\r\n\r\n    modifier onlyStudent{\r\n        require(msg.sender == students[msg.sender].studentPerson);\r\n        _;\r\n    }\r\n\r\n    modifier onlyAdmin{\r\n        require(isAdmin[msg.sender]);\r\n        _;\r\n    }\r\n\r\n    event CourseHidden(address student, string courseName);\r\n\r\n    //Constructor function\r\n    constructor() {\r\n        registrar = msg.sender;\r\n        isAdmin[msg.sender] = true;\r\n    }\r\n\r\n    // function mintDegree(address toStudentAddress, string calldata studentName) onlyAdmin public {\r\n    //     //Check if the provided studentName matches the stored studentName for the provided student address\r\n    //     if(keccak256(abi.encodePacked(studentName)) == keccak256(abi.encodePacked(students[toStudentAddress].studentName))) {\r\n    //         uint tokenID = uint(keccak256(abi.encodePacked(toStudentAddress)));\r\n    //         super.mint(toStudentAddress, tokenID, studentName);\r\n    //     }\r\n    // }\r\n\r\n    function mintDegree(address toStudentAddress, string calldata studentName) onlyAdmin public {\r\n        //Check if the provided studentName matches the stored studentName for the provided student address and graduation status of student is true\r\n        if(keccak256(abi.encodePacked(studentName)) == keccak256(abi.encodePacked(students[toStudentAddress].studentName)) \r\n           && students[toStudentAddress].graduationStatus) {\r\n            uint tokenID = uint(keccak256(abi.encodePacked(toStudentAddress)));\r\n            super.mint(toStudentAddress, tokenID, studentName);\r\n        }\r\n    }\r\n\r\n    function setAdmin(address adminPerson) onlyRegistrar public {\r\n        isAdmin[adminPerson] = true;\r\n    }\r\n\r\n    function setStudent(address studentPerson, string memory studentName) onlyAdmin public {\r\n        //Initialize a temporary Student struct with the default student object\r\n        Student memory temp = defaultStudent;\r\n        temp.studentPerson = studentPerson;\r\n        temp.studentName = studentName;\r\n        students[studentPerson] = temp;\r\n    }\r\n\r\n    function setGraduated(address studentPerson) onlyAdmin public {\r\n        students[studentPerson].graduationStatus = true;\r\n    }\r\n\r\n    function setCourse(address studentPerson, string memory courseName, uint courseGPA) onlyAdmin public {\r\n        //Get the array of courses for the specified student\r\n        Course[] storage temp = studentCourses[studentPerson];\r\n\r\n        //Determine the new index for the course\r\n        uint newIndex = temp.length;\r\n\r\n        //Add the new course to the student's course array\r\n        temp.push(Course({name : courseName, gpa : courseGPA}));\r\n\r\n        //Update the courseIndex mapping with the new index (1-based index)\r\n        courseIndex[studentPerson][courseName] = newIndex + 1;\r\n    }\r\n\r\n    function showAllCourses(address studentPerson) public view returns (Course[] memory) {\r\n        return studentCourses[studentPerson];\r\n    }\r\n\r\n    function hideCourse(string memory courseName) onlyStudent public {\r\n        //Set sender as the student address\r\n        address studentPerson = msg.sender;\r\n\r\n        //Get the index of the course to be hidden from courseIndex mapping\r\n        uint index  = courseIndex[studentPerson][courseName];\r\n\r\n        //Verify course exists\r\n        require(index > 0, \"Error, course doesn't exist\");\r\n        index = index - 1;\r\n\r\n        //Mark course as hidden in the courseIndex mapping by setting it to 0\r\n        courseIndex[studentPerson][courseName] = 0;\r\n\r\n        //Move course to hidden list\r\n        hiddenCourses[studentPerson].push(studentCourses[studentPerson][index]);\r\n\r\n        //Replace the course in the studentCourses list with the defaultCourse value\r\n        studentCourses[studentPerson][index] = defaultCourse;\r\n\r\n        //Emit an event to indicate that the course has been hidden\r\n        emit CourseHidden(studentPerson, courseName);\r\n    }\r\n\r\n    function showCourse(string memory courseName) onlyStudent public {\r\n        address studentPerson = msg.sender;\r\n        Course[] storage hidden = hiddenCourses[studentPerson];\r\n        Course[] storage shown = studentCourses[studentPerson];\r\n        uint index = 0;\r\n        bool courseFound = false;\r\n\r\n        //Find the hidden course\r\n        while(index < hidden.length) {\r\n            if(keccak256(abi.encodePacked(hidden[index].name)) == keccak256(abi.encodePacked(courseName))) {\r\n                courseFound = true;\r\n                break;\r\n            }\r\n            index++;\r\n        }\r\n\r\n        require(courseFound, \"Course not found in hidden courses\");\r\n\r\n        //Move the course from hidden list to shown list\r\n        Course memory temp = hidden[index];\r\n        for(uint i = 0; i < shown.length; i++) {\r\n            if(keccak256(abi.encodePacked(shown[i].name)) == keccak256(abi.encodePacked(\"\"))) {\r\n                shown[i] = temp;\r\n                courseIndex[studentPerson][courseName] = i + 1;\r\n\r\n                //Remove the course from the hidden list\r\n                hidden[index] = hidden[hidden.length - 1];\r\n                hidden.pop();\r\n                break;\r\n            }\r\n        }\r\n    }\r\n}\r\n",
  "sourcePath": "C:\\Users\\dcnor\\OneDrive\\Documents\\GitHub\\Blockchain-Degree\\contracts\\Degree.sol",
  "compiler": {
    "name": "solc",
    "version": "0.8.0+commit.c7dfd78e.Emscripten.clang"
  },
  "schemaVersion": "3.4.16",
  "updatedAt": "2024-06-01T04:52:16.096Z",
  "networkType": "ethereum",
  "devdoc": {
    "kind": "dev",
    "methods": {
      "approve(address,uint256)": {
        "details": "Set or reaffirm the approved address for an NFT. This function can be changed to payable.",
        "params": {
          "_approved": "Address to be approved for the given NFT ID.",
          "_tokenId": "ID of the token to be approved."
        }
      },
      "balanceOf(address)": {
        "details": "Returns the number of NFTs owned by `_owner`. NFTs assigned to the zero address are considered invalid, and this function throws for queries about the zero address.",
        "params": {
          "_owner": "Address for whom to query the balance."
        },
        "returns": {
          "_0": "Balance of _owner."
        }
      },
      "getApproved(uint256)": {
        "details": "Get the approved address for a single NFT.",
        "params": {
          "_tokenId": "ID of the NFT to query the approval of."
        },
        "returns": {
          "_0": "Address that _tokenId is approved for."
        }
      },
      "isApprovedForAll(address,address)": {
        "details": "Checks if `_operator` is an approved operator for `_owner`.",
        "params": {
          "_operator": "The address that acts on behalf of the owner.",
          "_owner": "The address that owns the NFTs."
        },
        "returns": {
          "_0": "True if approved for all, false otherwise."
        }
      },
      "name()": {
        "details": "Returns a descriptive name for a collection of NFTokens.",
        "returns": {
          "_name": "Representing name."
        }
      },
      "ownerOf(uint256)": {
        "details": "Returns the address of the owner of the NFT. NFTs assigned to the zero address are considered invalid, and queries about them do throw.",
        "params": {
          "_tokenId": "The identifier for an NFT."
        },
        "returns": {
          "_owner": "Address of _tokenId owner."
        }
      },
      "safeTransferFrom(address,address,uint256)": {
        "details": "Transfers the ownership of an NFT from one address to another address. This function can be changed to payable.",
        "params": {
          "_from": "The current owner of the NFT.",
          "_to": "The new owner.",
          "_tokenId": "The NFT to transfer."
        }
      },
      "safeTransferFrom(address,address,uint256,bytes)": {
        "details": "Transfers the ownership of an NFT from one address to another address. This function can be changed to payable.",
        "params": {
          "_data": "Additional data with no specified format, sent in call to `_to`.",
          "_from": "The current owner of the NFT.",
          "_to": "The new owner.",
          "_tokenId": "The NFT to transfer."
        }
      },
      "setApprovalForAll(address,bool)": {
        "details": "Enables or disables approval for a third party (\"operator\") to manage all of `msg.sender`'s assets. It also emits the ApprovalForAll event.",
        "params": {
          "_approved": "True if the operators is approved, false to revoke approval.",
          "_operator": "Address to add to the set of authorized operators."
        }
      },
      "supportsInterface(bytes4)": {
        "details": "Function to check which interfaces are suported by this contract.",
        "params": {
          "_interfaceID": "Id of the interface."
        },
        "returns": {
          "_0": "True if _interfaceID is supported, false otherwise."
        }
      },
      "symbol()": {
        "details": "Returns an abbreviated name for NFTokens.",
        "returns": {
          "_symbol": "Representing symbol."
        }
      },
      "tokenURI(uint256)": {
        "details": "A distinct URI (RFC 3986) for a given NFT.",
        "params": {
          "_tokenId": "Id for which we want uri."
        },
        "returns": {
          "_0": "URI of _tokenId."
        }
      },
      "transferFrom(address,address,uint256)": {
        "details": "Throws unless `msg.sender` is the current owner, an authorized operator, or the approved address for this NFT. Throws if `_from` is not the current owner. Throws if `_to` is the zero address. Throws if `_tokenId` is not a valid NFT. This function can be changed to payable.",
        "params": {
          "_from": "The current owner of the NFT.",
          "_to": "The new owner.",
          "_tokenId": "The NFT to transfer."
        }
      },
      "transferOwnership(address)": {
        "details": "Allows the current owner to transfer control of the contract to a newOwner.",
        "params": {
          "_newOwner": "The address to transfer ownership to."
        }
      }
    },
    "version": 1
  },
  "userdoc": {
    "kind": "user",
    "methods": {
      "approve(address,uint256)": {
        "notice": "The zero address indicates there is no approved address. Throws unless `msg.sender` is the current NFT owner, or an authorized operator of the current owner."
      },
      "getApproved(uint256)": {
        "notice": "Throws if `_tokenId` is not a valid NFT."
      },
      "safeTransferFrom(address,address,uint256)": {
        "notice": "This works identically to the other function with an extra data parameter, except this function just sets data to \"\"."
      },
      "safeTransferFrom(address,address,uint256,bytes)": {
        "notice": "Throws unless `msg.sender` is the current owner, an authorized operator, or the approved address for this NFT. Throws if `_from` is not the current owner. Throws if `_to` is the zero address. Throws if `_tokenId` is not a valid NFT. When transfer is complete, this function checks if `_to` is a smart contract (code size > 0). If so, it calls `onERC721Received` on `_to` and throws if the return value is not `bytes4(keccak256(\"onERC721Received(address,uint256,bytes)\"))`."
      },
      "setApprovalForAll(address,bool)": {
        "notice": "This works even if sender doesn't own any tokens at the time."
      },
      "transferFrom(address,address,uint256)": {
        "notice": "The caller is responsible to confirm that `_to` is capable of receiving NFTs or else they may be permanently lost."
      }
    },
    "version": 1
  }
}