{
  "contractName": "Degree",
  "abi": [
    {
      "inputs": [],
      "stateMutability": "nonpayable",
      "type": "constructor"
    },
    {
      "inputs": [
        {
          "internalType": "address",
          "name": "",
          "type": "address"
        }
      ],
      "name": "students",
      "outputs": [
        {
          "internalType": "address",
          "name": "studentPerson",
          "type": "address"
        },
        {
          "internalType": "bool",
          "name": "graduationStatus",
          "type": "bool"
        }
      ],
      "stateMutability": "view",
      "type": "function",
      "constant": true
    },
    {
      "inputs": [
        {
          "internalType": "address",
          "name": "adminPerson",
          "type": "address"
        }
      ],
      "name": "setAdmin",
      "outputs": [],
      "stateMutability": "nonpayable",
      "type": "function"
    },
    {
      "inputs": [
        {
          "internalType": "address",
          "name": "studentPerson",
          "type": "address"
        }
      ],
      "name": "setStudent",
      "outputs": [],
      "stateMutability": "nonpayable",
      "type": "function"
    },
    {
      "inputs": [
        {
          "internalType": "address",
          "name": "studentPerson",
          "type": "address"
        }
      ],
      "name": "setGraduated",
      "outputs": [],
      "stateMutability": "nonpayable",
      "type": "function"
    },
    {
      "inputs": [
        {
          "internalType": "address",
          "name": "studentPerson",
          "type": "address"
        },
        {
          "internalType": "string",
          "name": "courseName",
          "type": "string"
        },
        {
          "internalType": "uint256",
          "name": "courseGPA",
          "type": "uint256"
        }
      ],
      "name": "setCourse",
      "outputs": [],
      "stateMutability": "nonpayable",
      "type": "function"
    },
    {
      "inputs": [
        {
          "internalType": "address",
          "name": "studentPerson",
          "type": "address"
        }
      ],
      "name": "showAllCourses",
      "outputs": [
        {
          "components": [
            {
              "internalType": "string",
              "name": "name",
              "type": "string"
            },
            {
              "internalType": "uint256",
              "name": "gpa",
              "type": "uint256"
            }
          ],
          "internalType": "struct Degree.Course[]",
          "name": "",
          "type": "tuple[]"
        }
      ],
      "stateMutability": "view",
      "type": "function",
      "constant": true
    },
    {
      "inputs": [
        {
          "internalType": "string",
          "name": "courseName",
          "type": "string"
        }
      ],
      "name": "hideCourse",
      "outputs": [],
      "stateMutability": "nonpayable",
      "type": "function"
    },
    {
      "inputs": [
        {
          "internalType": "string",
          "name": "courseName",
          "type": "string"
        }
      ],
      "name": "showCourse",
      "outputs": [],
      "stateMutability": "nonpayable",
      "type": "function"
    }
  ],
  "bytecode": "0x608060405234801561001057600080fd5b50336000806101000a81548173ffffffffffffffffffffffffffffffffffffffff021916908373ffffffffffffffffffffffffffffffffffffffff1602179055506001600460003373ffffffffffffffffffffffffffffffffffffffff1673ffffffffffffffffffffffffffffffffffffffff16815260200190815260200160002060006101000a81548160ff021916908315150217905550611a4a806100b86000396000f3fe608060405234801561001057600080fd5b50600436106100885760003560e01c8063704b6c021161005b578063704b6c0214610111578063a691bf681461012d578063a6c807a914610149578063f05ddc341461017a57610088565b806301f115f91461008d57806306dbf0b4146100a95780630d713ab6146100c55780634ddaaad6146100e1575b600080fd5b6100a760048036038101906100a29190610f22565b610196565b005b6100c360048036038101906100be9190611095565b610354565b005b6100df60048036038101906100da9190610f22565b610726565b005b6100fb60048036038101906100f69190610f22565b6107da565b6040516101089190611275565b60405180910390f35b61012b60048036038101906101269190610f22565b610914565b005b610147600480360381019061014291906112c3565b6109c7565b005b610163600480360381019061015e9190610f22565b610b3d565b60405161017192919061135c565b60405180910390f35b610194600480360381019061018f9190611095565b610b8e565b005b600460003373ffffffffffffffffffffffffffffffffffffffff1673ffffffffffffffffffffffffffffffffffffffff16815260200190815260200160002060009054906101000a900460ff166101ec57600080fd5b600060016040518060400160405290816000820160009054906101000a900473ffffffffffffffffffffffffffffffffffffffff1673ffffffffffffffffffffffffffffffffffffffff1673ffffffffffffffffffffffffffffffffffffffff1681526020016000820160149054906101000a900460ff161515151581525050905081816000019073ffffffffffffffffffffffffffffffffffffffff16908173ffffffffffffffffffffffffffffffffffffffff168152505080600560008473ffffffffffffffffffffffffffffffffffffffff1673ffffffffffffffffffffffffffffffffffffffff16815260200190815260200160002060008201518160000160006101000a81548173ffffffffffffffffffffffffffffffffffffffff021916908373ffffffffffffffffffffffffffffffffffffffff16021790555060208201518160000160146101000a81548160ff0219169083151502179055509050505050565b600560003373ffffffffffffffffffffffffffffffffffffffff1673ffffffffffffffffffffffffffffffffffffffff16815260200190815260200160002060000160009054906101000a900473ffffffffffffffffffffffffffffffffffffffff1673ffffffffffffffffffffffffffffffffffffffff163373ffffffffffffffffffffffffffffffffffffffff16146103ee57600080fd5b60003390506000600860008373ffffffffffffffffffffffffffffffffffffffff1673ffffffffffffffffffffffffffffffffffffffff16815260200190815260200160002090506000600760008473ffffffffffffffffffffffffffffffffffffffff1673ffffffffffffffffffffffffffffffffffffffff168152602001908152602001600020905060005b8460405160200161048d91906113c1565b604051602081830303815290604052805190602001208382815481106104b6576104b56113d8565b5b90600052602060002090600202016000016040516020016104d791906114ff565b60405160208183030381529060405280519060200120146105055780806104fd90611545565b91505061047c565b600083828154811061051a576105196113d8565b5b906000526020600020906002020160405180604001604052908160008201805461054390611436565b80601f016020809104026020016040519081016040528092919081815260200182805461056f90611436565b80156105bc5780601f10610591576101008083540402835291602001916105bc565b820191906000526020600020905b81548152906001019060200180831161059f57829003601f168201915b50505050508152602001600182015481525050905060005b838054905081101561071d576040516020016105ef906115b3565b60405160208183030381529060405280519060200120848281548110610618576106176113d8565b5b906000526020600020906002020160000160405160200161063991906114ff565b604051602081830303815290604052805190602001200361070a5781848281548110610668576106676113d8565b5b9060005260206000209060020201600082015181600001908161068b919061175f565b50602082015181600101559050506001816106a69190611831565b600660008873ffffffffffffffffffffffffffffffffffffffff1673ffffffffffffffffffffffffffffffffffffffff168152602001908152602001600020886040516106f391906113c1565b90815260200160405180910390208190555061071d565b808061071590611545565b9150506105d4565b50505050505050565b600460003373ffffffffffffffffffffffffffffffffffffffff1673ffffffffffffffffffffffffffffffffffffffff16815260200190815260200160002060009054906101000a900460ff1661077c57600080fd5b6001600560008373ffffffffffffffffffffffffffffffffffffffff1673ffffffffffffffffffffffffffffffffffffffff16815260200190815260200160002060000160146101000a81548160ff02191690831515021790555050565b6060600760008373ffffffffffffffffffffffffffffffffffffffff1673ffffffffffffffffffffffffffffffffffffffff168152602001908152602001600020805480602002602001604051908101604052809291908181526020016000905b82821015610909578382906000526020600020906002020160405180604001604052908160008201805461086e90611436565b80601f016020809104026020016040519081016040528092919081815260200182805461089a90611436565b80156108e75780601f106108bc576101008083540402835291602001916108e7565b820191906000526020600020905b8154815290600101906020018083116108ca57829003601f168201915b505050505081526020016001820154815250508152602001906001019061083b565b505050509050919050565b60008054906101000a900473ffffffffffffffffffffffffffffffffffffffff1673ffffffffffffffffffffffffffffffffffffffff163373ffffffffffffffffffffffffffffffffffffffff161461096c57600080fd5b6001600460008373ffffffffffffffffffffffffffffffffffffffff1673ffffffffffffffffffffffffffffffffffffffff16815260200190815260200160002060006101000a81548160ff02191690831515021790555050565b600460003373ffffffffffffffffffffffffffffffffffffffff1673ffffffffffffffffffffffffffffffffffffffff16815260200190815260200160002060009054906101000a900460ff16610a1d57600080fd5b6000600760008573ffffffffffffffffffffffffffffffffffffffff1673ffffffffffffffffffffffffffffffffffffffff16815260200190815260200160002090506000818054905090508160405180604001604052808681526020018581525090806001815401808255809150506001900390600052602060002090600202016000909190919091506000820151816000019081610abd919061175f565b50602082015181600101555050600181610ad79190611831565b600660008773ffffffffffffffffffffffffffffffffffffffff1673ffffffffffffffffffffffffffffffffffffffff16815260200190815260200160002085604051610b2491906113c1565b9081526020016040518091039020819055505050505050565b60056020528060005260406000206000915090508060000160009054906101000a900473ffffffffffffffffffffffffffffffffffffffff16908060000160149054906101000a900460ff16905082565b600560003373ffffffffffffffffffffffffffffffffffffffff1673ffffffffffffffffffffffffffffffffffffffff16815260200190815260200160002060000160009054906101000a900473ffffffffffffffffffffffffffffffffffffffff1673ffffffffffffffffffffffffffffffffffffffff163373ffffffffffffffffffffffffffffffffffffffff1614610c2857600080fd5b60003390506000600660008373ffffffffffffffffffffffffffffffffffffffff1673ffffffffffffffffffffffffffffffffffffffff16815260200190815260200160002083604051610c7c91906113c1565b908152602001604051809103902054905060008111610cd0576040517f08c379a0000000000000000000000000000000000000000000000000000000008152600401610cc7906118c2565b60405180910390fd5b600181610cdd91906118e2565b90506000600660008473ffffffffffffffffffffffffffffffffffffffff1673ffffffffffffffffffffffffffffffffffffffff16815260200190815260200160002084604051610d2e91906113c1565b908152602001604051809103902081905550600860008373ffffffffffffffffffffffffffffffffffffffff1673ffffffffffffffffffffffffffffffffffffffff168152602001908152602001600020600760008473ffffffffffffffffffffffffffffffffffffffff1673ffffffffffffffffffffffffffffffffffffffff1681526020019081526020016000208281548110610dd057610dcf6113d8565b5b9060005260206000209060020201908060018154018082558091505060019003906000526020600020906002020160009091909190915060008201816000019081610e1b919061192c565b506001820154816001015550506002600760008473ffffffffffffffffffffffffffffffffffffffff1673ffffffffffffffffffffffffffffffffffffffff1681526020019081526020016000208281548110610e7b57610e7a6113d8565b5b906000526020600020906002020160008201816000019081610e9d919061192c565b5060018201548160010155905050505050565b6000604051905090565b600080fd5b600080fd5b600073ffffffffffffffffffffffffffffffffffffffff82169050919050565b6000610eef82610ec4565b9050919050565b610eff81610ee4565b8114610f0a57600080fd5b50565b600081359050610f1c81610ef6565b92915050565b600060208284031215610f3857610f37610eba565b5b6000610f4684828501610f0d565b91505092915050565b600080fd5b600080fd5b6000601f19601f8301169050919050565b7f4e487b7100000000000000000000000000000000000000000000000000000000600052604160045260246000fd5b610fa282610f59565b810181811067ffffffffffffffff82111715610fc157610fc0610f6a565b5b80604052505050565b6000610fd4610eb0565b9050610fe08282610f99565b919050565b600067ffffffffffffffff82111561100057610fff610f6a565b5b61100982610f59565b9050602081019050919050565b82818337600083830152505050565b600061103861103384610fe5565b610fca565b90508281526020810184848401111561105457611053610f54565b5b61105f848285611016565b509392505050565b600082601f83011261107c5761107b610f4f565b5b813561108c848260208601611025565b91505092915050565b6000602082840312156110ab576110aa610eba565b5b600082013567ffffffffffffffff8111156110c9576110c8610ebf565b5b6110d584828501611067565b91505092915050565b600081519050919050565b600082825260208201905092915050565b6000819050602082019050919050565b600081519050919050565b600082825260208201905092915050565b60005b83811015611144578082015181840152602081019050611129565b60008484015250505050565b600061115b8261110a565b6111658185611115565b9350611175818560208601611126565b61117e81610f59565b840191505092915050565b6000819050919050565b61119c81611189565b82525050565b600060408301600083015184820360008601526111bf8282611150565b91505060208301516111d46020860182611193565b508091505092915050565b60006111eb83836111a2565b905092915050565b6000602082019050919050565b600061120b826110de565b61121581856110e9565b935083602082028501611227856110fa565b8060005b85811015611263578484038952815161124485826111df565b945061124f836111f3565b925060208a0199505060018101905061122b565b50829750879550505050505092915050565b6000602082019050818103600083015261128f8184611200565b905092915050565b6112a081611189565b81146112ab57600080fd5b50565b6000813590506112bd81611297565b92915050565b6000806000606084860312156112dc576112db610eba565b5b60006112ea86828701610f0d565b935050602084013567ffffffffffffffff81111561130b5761130a610ebf565b5b61131786828701611067565b9250506040611328868287016112ae565b9150509250925092565b61133b81610ee4565b82525050565b60008115159050919050565b61135681611341565b82525050565b60006040820190506113716000830185611332565b61137e602083018461134d565b9392505050565b600081905092915050565b600061139b8261110a565b6113a58185611385565b93506113b5818560208601611126565b80840191505092915050565b60006113cd8284611390565b915081905092915050565b7f4e487b7100000000000000000000000000000000000000000000000000000000600052603260045260246000fd5b7f4e487b7100000000000000000000000000000000000000000000000000000000600052602260045260246000fd5b6000600282049050600182168061144e57607f821691505b60208210810361146157611460611407565b5b50919050565b60008190508160005260206000209050919050565b6000815461148981611436565b6114938186611385565b945060018216600081146114ae57600181146114c3576114f6565b60ff19831686528115158202860193506114f6565b6114cc85611467565b60005b838110156114ee578154818901526001820191506020810190506114cf565b838801955050505b50505092915050565b600061150b828461147c565b915081905092915050565b7f4e487b7100000000000000000000000000000000000000000000000000000000600052601160045260246000fd5b600061155082611189565b91507fffffffffffffffffffffffffffffffffffffffffffffffffffffffffffffffff820361158257611581611516565b5b600182019050919050565b50565b600061159d600083611385565b91506115a88261158d565b600082019050919050565b60006115be82611590565b9150819050919050565b60006020601f8301049050919050565b600082821b905092915050565b6000600883026116157fffffffffffffffffffffffffffffffffffffffffffffffffffffffffffffffff826115d8565b61161f86836115d8565b95508019841693508086168417925050509392505050565b6000819050919050565b600061165c61165761165284611189565b611637565b611189565b9050919050565b6000819050919050565b61167683611641565b61168a61168282611663565b8484546115e5565b825550505050565b600090565b61169f611692565b6116aa81848461166d565b505050565b5b818110156116ce576116c3600082611697565b6001810190506116b0565b5050565b601f821115611713576116e481611467565b6116ed846115c8565b810160208510156116fc578190505b611710611708856115c8565b8301826116af565b50505b505050565b600082821c905092915050565b600061173660001984600802611718565b1980831691505092915050565b600061174f8383611725565b9150826002028217905092915050565b6117688261110a565b67ffffffffffffffff81111561178157611780610f6a565b5b61178b8254611436565b6117968282856116d2565b600060209050601f8311600181146117c957600084156117b7578287015190505b6117c18582611743565b865550611829565b601f1984166117d786611467565b60005b828110156117ff578489015182556001820191506020850194506020810190506117da565b8683101561181c5784890151611818601f891682611725565b8355505b6001600288020188555050505b505050505050565b600061183c82611189565b915061184783611189565b925082820190508082111561185f5761185e611516565b5b92915050565b600082825260208201905092915050565b7f4572726f722c20636f7572736520646f65736e27742065786973740000000000600082015250565b60006118ac601b83611865565b91506118b782611876565b602082019050919050565b600060208201905081810360008301526118db8161189f565b9050919050565b60006118ed82611189565b91506118f883611189565b92508282039050818111156119105761190f611516565b5b92915050565b60008154905061192581611436565b9050919050565b81810361193a575050611a12565b61194382611916565b67ffffffffffffffff81111561195c5761195b610f6a565b5b6119668254611436565b6119718282856116d2565b6000601f8311600181146119a0576000841561198e578287015490505b6119988582611743565b865550611a0b565b601f1984166119ae87611467565b96506119b986611467565b60005b828110156119e1578489015482556001820191506001850194506020810190506119bc565b868310156119fe57848901546119fa601f891682611725565b8355505b6001600288020188555050505b5050505050505b56fea2646970667358221220797dc0d0bf85dcbff991b6267bd4032c422bb24dc479a983e7afae0aa37a928864736f6c63430008110033",
  "immutableReferences": {},
  "source": "// SPDX-License-Identifier: GPL-3.0\npragma solidity ^0.8.0;\n\ncontract Degree {\n    address registrar;\n    struct Course{\n        string name;\n        uint gpa;\n    }\n    struct Student{\n        address studentPerson;\n        bool graduationStatus;\n    }\n    Student private defaultStudent;\n    Course private defaultCourse;\n    mapping(address => bool) private isAdmin;\n    mapping(address => Student) public students;\n    mapping(address => mapping(string => uint)) private courseIndex;\n    mapping(address => Course[]) private studentCourses;\n    mapping(address => Course[]) private hiddenCourses;\n\n    modifier onlyRegistrar{\n        require(msg.sender == registrar);\n        _;\n    }\n\n    modifier onlyStudent{\n        require(msg.sender == students[msg.sender].studentPerson);\n        _;\n    }\n\n    modifier onlyAdmin{\n        require(isAdmin[msg.sender]);\n        _;\n    }\n\n    // constructor function\n    constructor() {\n        registrar = msg.sender;\n        isAdmin[msg.sender] = true;\n    }\n\n    function setAdmin(address adminPerson) onlyRegistrar public {\n        isAdmin[adminPerson] = true;\n    }\n\n    function setStudent(address studentPerson) onlyAdmin public {\n        Student memory temp = defaultStudent;\n        temp.studentPerson = studentPerson;\n        students[studentPerson] = temp;\n    }\n\n    function setGraduated(address studentPerson) onlyAdmin public {\n        students[studentPerson].graduationStatus = true;\n    }\n\n    function setCourse(address studentPerson, string memory courseName, uint courseGPA) onlyAdmin public {\n        Course[] storage temp = studentCourses[studentPerson];\n        uint newIndex = temp.length;\n        temp.push(Course({name : courseName, gpa : courseGPA}));\n        courseIndex[studentPerson][courseName] = newIndex + 1;\n    }\n\n    function showAllCourses(address studentPerson) public view returns (Course[] memory) {\n        return studentCourses[studentPerson];\n    }\n\n    function hideCourse(string memory courseName) onlyStudent public {\n        address studentPerson = msg.sender;\n        uint temp = courseIndex[studentPerson][courseName];\n        require(temp > 0, \"Error, course doesn't exist\");\n        temp = temp - 1;\n        courseIndex[studentPerson][courseName] = 0;\n        hiddenCourses[studentPerson].push(studentCourses[studentPerson][temp]);\n        studentCourses[studentPerson][temp] = defaultCourse;\n    }\n\n    function showCourse(string memory courseName) onlyStudent public {\n        address studentPerson = msg.sender;\n        Course[] storage hidden = hiddenCourses[studentPerson];\n        Course[] storage shown = studentCourses[studentPerson];\n        uint index = 0;\n        while(keccak256(abi.encodePacked(hidden[index].name)) != keccak256(abi.encodePacked(courseName))) {\n            index++;\n        }\n        Course memory temp = hidden[index];\n        for(uint i = 0; i < shown.length; i++) {\n            if(keccak256(abi.encodePacked(shown[i].name)) == keccak256(abi.encodePacked(\"\"))) {\n                shown[i] = temp;\n                courseIndex[studentPerson][courseName] = i + 1;\n                break;\n            }\n        }\n        \n    }\n}",
  "sourcePath": "C:\\Users\\ryans\\Documents\\Classes\\CSE 426 - Blockchain\\Project\\degreeTruffle\\contracts\\degree.sol",
  "compiler": {
    "name": "solc",
    "version": "0.8.17+commit.8df45f5f.Emscripten.clang"
  },
  "schemaVersion": "3.4.10",
  "updatedAt": "2022-11-14T03:44:18.742Z",
  "networkType": "ethereum",
  "devdoc": {
    "kind": "dev",
    "methods": {},
    "version": 1
  },
  "userdoc": {
    "kind": "user",
    "methods": {},
    "version": 1
  }
}